:10000000E04300025D1F00009B1100005B12000036
:10001000000000000000000000000000CD78FFFD9F
:10002000000000000000000000000000971D00001C
:100030000000000000000000F71E0000731A00001E
:10004000731F0000731F0000731F0000731F000068
:10005000731F0000731F0000731F0000731F000058
:10006000731F0000731F0000731F0000731F000048
:10007000731F0000731F0000731F0000731F000038
:10008000731F0000FD080000731F0000731F0000B5
:10009000731F0000731F0000731F0000731F000018
:1000A00007100000731F0000731F0000731F000083
:1000B000731F0000731F0000731F0000731F0000F8
:1000C000731F0000731F0000731F0000731F0000E8
:1000D000731F0000731F0000731F0000731F0000D8
:1000E000731F0000731F0000731F0000731F0000C8
:1000F000731F0000731F0000731F0000014648B10A
:10010000B0FA80F18840C91CC1F58461090501EB92
:10011000D0214005704730B4002513E050F8042B7F
:10012000D30744BFA9F101039A18091F042942F813
:10013000045BFAD213468C0744BF15809B1CC90789
:1001400048BF1D7050F8041B0029E7D130BC704730
:1001500030B40EE00268436802440830DC0744BF54
:10016000A9F10104E31852F8045B43F8045B091F8A
:10017000F9D150F8041B0029ECD130BC70470000C5
:1001800001F000428B1AA3F16051B1F5801F0ADB28
:10019000B1F17F6F1FD242EAC102C10071F100418B
:1001A00042EB507070470B15C3F10903212B10D29D
:1001B000890241EA905180020128494141F0004101
:1001C00021FA03F0C3F12003994071F1004150413D
:1001D0007047100070476FF0000013EB103F5CBFDA
:1001E000000E42EAC0507047456C7661582053209B
:1001F0004C616220536875747465722076312E31BB
:0802000000000000E80300000B
:10030000C9B249010844D2B2805C002801D0012062
:1003100000E00020C0B2704710B44FF400530C004E
:10032000E4B200EB8404C9B200EB8100C0580121A3
:1003300011FA02F20243E25010BC704710B44FF4BD
:1003400000530C00E4B200EB8404C9B200EB81005E
:10035000C058012111FA02F230EA0202E25010BC48
:100360007047012313FA02F2C9B200EB810010F5C5
:100370000A5002607047F0B40200002000231AE027
:10038000D55C082495EA000616F001063700FFB296
:10039000012F01D190F01800C0B24008F6B2012E32
:1003A00001D150F08000EDB26D08641E2600F6B257
:1003B000002EE7D15B1C8B42E2D1C0B2F0BC70478B
:1003C00038B5C0B2012802D0022803D004E00124CD
:1003D000042501E0002409252A00D2B22100C9B277
:1003E0005FF0E050FFF798FF2A00D2B22100C9B2B7
:1003F0005FF0E050FFF7B5FF4FF4F07000F08BFABC
:100400002A00D2B22100C9B25FF0E050FFF796FF98
:10041000462000F080FA2A00D2B22100C9B25FF073
:10042000E050FFF76DFF0400BE2000F074FA2000DA
:10043000C0B232BD70B50C00C0B2012802D0022893
:1004400003D004E00125042601E00025092632003E
:10045000D2B22900C9B25FF0E050FFF75DFF320071
:10046000D2B22900C9B25FF0E050FFF77AFF052051
:1004700000F051FA2000C0B2002802D1412000F063
:100480004AFA3200D2B22900C9B25FF0E050FFF759
:1004900055FF052000F03FFAE4B2012C02D13C20C8
:1004A00000F039FA70BD38B5C0B2012802D0022878
:1004B00003D004E00124042501E0002409252A00DA
:1004C000D2B22100C9B25FF0E050FFF725FF2A0049
:1004D000D2B22100C9B25FF0E050FFF742FF052021
:1004E00000F019FA2A00D2B22100C9B25FF0E05040
:1004F000FFF724FF0A2000F00EFA2A00D2B22100F2
:10050000C9B25FF0E050FFF7FBFE04002D2000F0C1
:1005100002FA2000C0B232BD70B504000D00002602
:100520000FE000212000C0B2FFF784FF06E0E807DB
:10053000F7D501212000C0B2FFF77CFFEDB26D08B6
:10054000761C3000C0B20828F1DB70BD70B5040025
:100550000025002600200BE02000C0B2FFF7A3FF1B
:10056000EDB26D08C0B2012801D155F08005761CAE
:100570003000C0B20828EFDB2800C0B270BD38B52B
:10058000C0B2012802D0022803D004E001240425CF
:1005900001E0002409252A00D2B22100C9B25FF08F
:1005A000E050FFF7CBFE2A00D2B22100C9B25FF0C3
:1005B000E050FFF7A5FE0028F5D031BDFEB50400E0
:1005C00000202000C0B2FFF7FBFE002813D133212A
:1005D0002000C0B2FFF7A0FF002508E02000C0B255
:1005E000FFF7B4FF69462A00D2B288546D1C280078
:1005F000C0B20828F2DB9DF8005007216846FFF7DB
:10060000BAFE2900C9B210295BD16E460100F27909
:10061000C9B2914255D144212000C0B2FFF77CFFFE
:100620002000C0B2FFF7ABFF2000C0B2FFF7C8FE4A
:10063000CC212000C0B2FFF76FFFBE212000C0B266
:10064000FFF76AFF002707E02000C0B2FFF77EFF38
:100650003900C9B270547F1C3800C0B20928F3DBDE
:1006600008216846FFF787FE0100327AC9B291423D
:1006700027D1737813F001039DF80060F6B2760875
:100680001900C9B2012902D196F07F06761C31000B
:10069000C9B20A2291FBF2F2F6B21700FFB20A21A8
:1006A00001FB1766120152EAC31232432100C9B29C
:1006B000012904D0022904D146490A7201E04549C2
:1006C0000A70EDB2282D40F083806E46F179C0B2F9
:1006D00088427DD144212000C0B2FFF71DFF2000D9
:1006E000C0B2FFF74CFF2000C0B2FFF769FECC217B
:1006F0002000C0B2FFF710FFBE212000C0B2FFF7FC
:100700000BFF002507E02000C0B2FFF71FFF290004
:10071000C9B270546D1C2800C0B20928F3DB08214F
:100720006846FFF728FE317AC0B2884250D170780F
:10073000C0F3C0019DF80000C0B27278120112F03F
:10074000700252EA10120800C0B2012802D192F0E1
:100750007F02521C1000C0B20A2390FBF3F5D2B204
:100760002B00DBB20A2000FB13222D0155EAC11534
:10077000154371789DF8000050EA0120010412D55C
:1007800080F47F4090F0FF00401C80B2FFF7B6FC81
:100790000022114B00F0D4F80022104B00F0D0F8EA
:1007A000FFF7EEFC08E080B2FFF7A8FC00220B4B3D
:1007B00000F0C6F8FFF7E4FCE4B2012C05D0022CEF
:1007C00006D104490D72C86002E002490D7048600C
:1007D000F7BD0000B40300020000F0BF0000B03F0E
:1007E000012210F01F018A404E4940B2400941F8F1
:1007F00020207047020052B2002A08D549014A4A17
:1008000040B210F00F00104400F8041C03E049014E
:10081000464A40B21154704701607047C9B200EBBC
:100820008100C0F8002170470B00DBB200EBC3036E
:10083000D3F804331A43C9B200EBC100C0F8042353
:1008400070470B00DBB200EBC303D3F800331A434D
:10085000C9B200EBC100C0F800237047C9B200EB79
:100860008100C0F800227047D0F8F020C9B21143CF
:10087000C0F8F0107047D0F8F420C9B21143C0F8A6
:10088000F4107047426832EA01014160704710B5C8
:10089000274C200000F025F926492000FFF7BCFF77
:1008A00000F089F92449B0FBF1F200212000FFF7A4
:1008B000B5FF00F080F92049B0FBF1F200212000E3
:1008C000FFF7CCFF5FF0FF3200212000FFF7B9FFF8
:1008D0004FF4805200212000FFF7A6FF04212000E2
:1008E000FFF7D0FF01212000FFF7BEFF01211120FB
:1008F000FFF780FF1120FFF773FF10BD80B50F4990
:100900000868002802D00868401E086001210848D5
:10091000FFF7B1FF01BD0949086008680028FCD154
:100920007047000000E100E018ED00E000E400E0A6
:1009300000C0011C0100020040420F00D003000271
:10094000B0B581EA030C0CF0004C40F2FF7515EADB
:1009500011541DBF15EA1357AC42AF4239E0E419F8
:1009600023EA455343F48013C90241F0004141EAB0
:10097000505EC7021100A7FB020200284FF00000E2
:10098000EEFB01204FF00001E3FB072118BF42F00E
:100990000102401800214941E3FB0E01A4F58064E7
:1009A0000F0302D252004041494154F101046CDD71
:1009B000470872F1004250F1000051EB0451A1F5DB
:1009C00080115CBF41EA0C01B0BD4CEA055100202A
:1009D000B0BD05EA1357AC4214BFAF4241E050EA44
:1009E000410E1CBF52EA430E02E061460020B0BD3A
:1009F00024423C441BD15FEA070EF6D0090302BF34
:100A000001460020AEF1140EB1FA81F7AEEB0704F7
:100A100001FA07FE0C37C7F1200100FA07F7C840BA
:100A20004EEA000E23EA455343F48013A2E733F065
:100A30000043B3FA83F704BFB2FA82FE77440B3F58
:100A4000E41BB7F1200E2FBF02FA0EF3BB40C7F133
:100A5000200E22FA0EFE38BF43EA0E03BA40641C91
:100A600082E750EA410E14BF52EA430E6FF00001D4
:100A70004FF4001717EB430F8ABF194617EB410FCE
:100A8000B5E74CEA05510020B0BDD4F10104B4F142
:100A900020070FDAC4F12007520828BF42F00102F4
:100AA00010FA07F501FA07F7E1BF2A43E04038439F
:100AB000E1400FE0352C98DCC7F1200452EA4002F7
:100AC00020FA07F218BF42F0010231FA07F0A14004
:100AD0000A43002172F1004250F1000051EB0C0179
:100AE000B0BD10B5840B04F00F041C34E0B200F06C
:100AF00052F8E0B200F07EF8E0B2BDE8104000F03D
:100B000089B8000010F0030002D0012801D001E0F4
:100B100018E019E000207047FFF7F4FF2D4909683D
:100B200001F03F01491C484302BD2B4909680020E0
:100B3000C9B219B1022903D001D3704702E003E022
:100B400026487047264870472648006870470000CE
:100B500025490A680020D2B2032A00D9704780B51F
:100B6000DFE802F00205090BBDE80140DDE7C869D6
:100B7000BDE80240C6E7C869CEE71C48006802BD70
:100B80000428154903D3001FC0B2486070470860AD
:100B900000224A60704701222028154905D34B687E
:100BA000203882401A434A6070470B6802FA00F00E
:100BB00018430860704710B50B4C2068C0B210B9DC
:100BC000FFF7B3FF01E0FFF7C3FFE16BB0FBF1F00C
:100BD00010BD00009841074080400740D8AC070096
:100BE000001BB700641F000084400740681F00001E
:100BF000C440074001222028164905DB4B682038F5
:100C000082401A434A6070470B6802FA00F01843AA
:100C100008607047012220280E4906DB4B68203807
:100C2000824023EA02024A6070470B6802FA00F031
:100C300023EA000008607047084A1168084303E08F
:100C4000064A116821EA0000034908401060704715
:100C5000000000004440074078FFFF0108420740C1
:100C6000012210F01F018A40DFF8801440B24009D1
:100C700041F820207047020052B2002A09D54901EC
:100C8000DFF86C2440B210F00F00104400F8041C90
:100C900004E04901DFF85C2440B21154704710B5FC
:100CA00004002000C0B2FFF7A5FF2000C0B2FFF78C
:100CB000B1FF10BD012313FA02F2C9B200EB8100AB
:100CC00010F50C500260704781607047016811F0A8
:100CD0001F0151F002010160704711F400414160B1
:100CE0007047D2B25200C9B200EB810082647047F3
:100CF0000A00D2B200EB8202926C12F0FE02C9B27C
:100D000000EB8100826470475200C9B2002901D013
:100D100052F00102D2B28265704730B40200002066
:100D2000002404E02300DBB2CB5C1818641C230011
:100D30001500DBB2EDB2AB42F4D3C0B230BC7047A9
:100D40002DE9F04704000D0016009A460027962171
:100D50000022DFF8A483C146484600F0EBF988F88A
:100D6000005088F801403200D2B218F10204514616
:100D7000200000F013FA002105E00800C0B218F8C6
:100D80000000C719491C0800C0B23200D2B2921C40
:100D90009042F2DBFFB27F42F6B208EB06008770AA
:100DA000BDE8F08710B52D20FFF7F5FE2D20FFF7E9
:100DB00076FFDFF84843200000F043FA3622002196
:100DC0002000FFF78EFF002200212000FFF79CFF8C
:100DD00000212000FFF78CFF4FF400412000FFF7B7
:100DE0007CFF4FF401412000FFF76EFF2000FFF76A
:100DF0006DFF02211820FFF73EFF1820FFF730FF9C
:100E000010BD2DE9F84300250026BB4F3C7897F82C
:100E10000180DFF8EC92390099F80000FFF77DFFC0
:100E2000002801D055F002052800C0B2002809D0E2
:100E3000B44B3200D2B22900C9B22000C0B2FFF7D1
:100E40007FFF89E02000C0B2002802D0012814D022
:100E500079E099F800000C2802DA55F0100572E0EC
:100E60000A22DFF8A48218F101093900484600F08F
:100E700095F9012088F8000065E099F80000032842
:100E800002DA55F010055EE05FFA88F8B8F1090F54
:100E900012D0B8F10A0F15D0B8F10B0F34D0B8F159
:100EA0000C0F39D0B8F10D0F3ED0B8F10E0F43D072
:100EB000B8F1100F12D046E09449924800F0CEF9F4
:100EC000802640E092498F484A7802700A7C42703E
:100ED0004A7C8270897CC170042634E08D4F894E33
:100EE00038783070387A70700422391D16F1020893
:100EF000404600F053F9042217F10C01B61D3000F2
:100F000000F04CF90A261EE0042283497D4E300091
:100F100000F044F9042616E004228049794E30009E
:100F200000F03CF904260EE004227D49754E3000A5
:100F300000F034F9042606E008227A49714E3000A8
:100F400000F02CF908266F4B3200D2B22900C9B24A
:100F50002000C0B2FFF7F4FEBDE8F18338B5724C53
:100F6000207800280BD100206549087096210022C6
:100F7000614D280000F0DEF80120207005E02078A7
:100F8000012802D100206949087031BD38B505003B
:100F9000664C2078002803D172B6FFF732FF62B6A4
:100FA00055482178405C28702078401C20702078BB
:100FB000972801DB00202070002032BD50494E4AA6
:100FC0000B78D0540878401C08700878972801DB0B
:100FD000002008700020704710B5002052490870AA
:100FE00000204749087000205049087096210022CF
:100FF000414C200000F09EF80E2200215FF0E050EE
:10100000FFF758FE10BD10B53C4C4949200000F0D8
:1010100031F94FF480712000FFF75FFE10BD38B545
:1010200000200090384C207800285DD0A078C0B215
:1010300000280ED001282AD0022811D003282ED053
:10104000042835D005283CD0062843D0082822D0D3
:1010500048E0E078002802D0E07800F0A1F941E013
:101060000422E11C6D46280000F098F8009800F07A
:1010700015FA274D4FF47A702862012000F004FA27
:10108000A869686101202877012068702AE0E0786B
:101090001F49087026E01E488169416122E0042250
:1010A000E11C1D4D280000F079F800F0CAFA19E0A3
:1010B0000422E11C194D280000F070F800F0D7FA66
:1010C00010E00422E11C164D280000F067F800F043
:1010D000E4FA07E00822E11C124D280000F05EF857
:1010E00000F0F1FA0020207031BD000000E100E0C6
:1010F00018ED00E000E400E03802000200000540C6
:10110000DA030002D0020002C40300020000000261
:1011100068030002B40300026C03000274030002BF
:10112000800300028C030002DC030002DB030002E8
:10113000341F000062F30F2262F31F42401810F0C8
:10114000030308D0C91A1FD3DB0748BF00F8012DDD
:1011500028BF20F8022D130030B41446154610396C
:1011600028BF20E93C00FAD8490728BF20E90C0035
:1011700048BF40F8042D890028BF20F8022D48BF41
:1011800000F8012D30BC7047C91818BF00F8012DB8
:10119000CB0728BF00F8012D7047FEE762B38B072D
:1011A00008D0521E11F8013B00F8013B00F02480EA
:1011B0008B07F6D1830740F0208000BF103A07D399
:1011C00030B4B1E83810103AA0E83810F9D230BC89
:1011D000530724BFB1E80810A0E8081044BF51F835
:1011E000043B40F8043BD20724BF31F8022B20F81F
:1011F000022B44BF0B7803707047121F17D35B009C
:1012000009D151F8043B20F8023B1B0C121F20F8B7
:10121000023BF6D20BE051F8043B00F8013B1B0AFD
:1012200020F8023B1B0C121F00F8013BF3D238BF21
:10123000121D521E24BF11F8013B00F8013BF8D8E3
:10124000704780B52D20FFF7A6FC2D20FFF7D2FCBC
:10125000BDE802402D20FFF7DDBCFEE75FEA000C91
:1012600011F8012B00F8012B12B111F8012BF9E74D
:101270006046704738B505460024A869000405D5C6
:101280004FF400426A60C868804726E06868400AF8
:1012900010F0030003D0022817D00DD31CE06868BB
:1012A000C0F3013005EB8000806CC0F346008DF880
:1012B00000000968884710E0686C8DF800008968B4
:1012C0009DF800008847044606E04968684688475C
:1012D00004469DF80000686414B90120286401E008
:1012E00002212964204632BDC9B249010844D2B264
:1012F000805C002801D0012000E00020C0B27047CF
:1013000010B500F0F6F900F004FA00F012FA00F05F
:1013100020FA424C002084F82C00606810F1010F84
:101320000BD0E06810F1010F07D0A06910F1010F98
:1013300003D094F82400FF2811D1002020703848F1
:10134000E060E0686060606800F0A8F84FF47A70D0
:10135000206201202077012000F096F804E00220AE
:101360002070012000F01CF810BD10B510220021E3
:101370005FF0E050FFF7B8FF002801D1012000E046
:101380000020264C20740F2200215FF0E050FFF770
:10139000ABFF002801D1012000E00020607410BDE7
:1013A00010B51E4C2178002937D094F82C10042950
:1013B00033DA6178022904D194F82C10491C84F89E
:1013C0002C10A070C0B2012802D0022813D024E053
:1013D000207C002821D1606800F060F84FF47A701A
:1013E0002062012000F050F8A069606101202077A0
:1013F0000120607011E0607C00280ED1E06800F0F0
:101400004DF84FF47A702062012000F03DF8A06999
:101410006061012020770120607010BD6803000228
:10142000504B1400C9B249010844D2B283547047EA
:10143000C9B200EB8100C0F800227047426832EA6E
:1014400001014160704780B5C9B2FFF7F1FF01BDEE
:1014500080B5FFF746FB01BD80B55FF00411FFF7D3
:10146000EDFF01BD10B5194C2000FFF7F1FF32214F
:10147000200000F0ACF900220121200000F086F9E4
:101480002000FFF7E9FF10BD80B50300DBB20222A8
:1014900001215FF0E050FFF7C5FF01BD80B50200FC
:1014A000002A05D1002201210848FFF7CCFF0BE0FC
:1014B0000748824200D202000648824200D3064A10
:1014C00001210248FFF7BFFF01BD00000080011CA1
:1014D000804F120061E3160060E316001CB508217E
:1014E00000226C462000FFF725FED720ADF8000053
:1014F000A04C2300022269469F4800F0BCF9002856
:1015000009D0A078C00701D400F007F8A078000641
:1015100001D5012000E0002016BD1CB508210022E5
:101520006C462000FFF706FE3D20ADF800002A20A3
:10153000ADF802008020ADF80400A620ADF806004A
:101540008C4B042269468C4800F095F913BD38B5E0
:10155000ADF5067D8223ADF8003003001B0CDBB235
:10156000ADF8023003001B0ADBB2ADF80430C0B2A4
:10157000ADF80600080080B240F20113984201DB8A
:101580004FF48071002009E003009BB2D35C6C46ED
:101590000500ADB204EB45042382401C03000C009F
:1015A0009BB2A4B2A342EFD3724B89B208310A00B6
:1015B0006946714800F05FF9FFF790FF0028FBD003
:1015C0000DF5077D30BD70B5ADF5067D0D0014003D
:1015D000D221ADF800100100090CC9B2ADF802101B
:1015E0000100090AC9B2ADF80410C0B2ADF8060096
:1015F000280080B240F20111884201DB4FF480756F
:101600005C4E33002A0092B2083269465A4800F014
:1016100032F9FFF763FF0028FBD0002008E001004B
:1016200089B206EB4101098B020092B2A154401C21
:1016300001002A0089B292B29142F0D30DF5067DE5
:1016400070BD10B5C0B06A464FF480710020FFF73E
:10165000BAFF042249496C462000FFF79FFD6A4605
:101660004FF480710020FFF772FF40B010BD10B53D
:10167000C0B06A464FF480710020FFF7A4FF042237
:101680003F4901AC2000FFF789FD6A464FF48071A5
:101690000020FFF75CFF40B010BD10B5C0B06A4637
:1016A0004FF480710020FFF78EFF0422354902AC11
:1016B0002000FFF773FD6A464FF480710020FFF7AA
:1016C00046FF40B010BD10B5C0B06A464FF48071FF
:1016D0000020FFF778FF08222B4903AC2000FFF71A
:1016E0005DFD6A464FF480710020FFF730FF40B087
:1016F00010BD10B5C0B06A464FF480710020FFF7EE
:1017000062FF042269461D4C2000FFF747FD40B0F0
:1017100010BD10B5C0B06A464FF480710020FFF7CD
:1017200052FF042201A9164C2000FFF737FD40B0FC
:1017300010BD10B5C0B06A464FF480710020FFF7AD
:1017400042FF042202A90F4C2000FFF727FD40B002
:1017500010BD10B5C0B06A464FF480710020FFF78D
:1017600032FF082203A9084C2000FFF717FD40B004
:1017700010BD00002000000200C004406C03000205
:1017800074030002800300028C03000270B400EBBB
:10179000C10303F5407341F480545C6001251D6072
:1017A00000EBC20606F5A06305FA01F11D60596061
:1017B000520003219140836DC9430B4005FA02F2A8
:1017C0001A438265426D1140416570BC704738B55F
:1017D00004460D46FFF7EFF9616841F004116160BE
:1017E0000022616841F008116160E264C4F80021E0
:1017F000B0FBF5F0C4F800024FF4805104F54070DE
:101800000122416002600148206031BD01000200F8
:10181000016851F00101016070471FB5040020000C
:1018200000F086F81F49200000F05DF8ADF80C00CC
:1018300010208DF8050000208DF8060004208DF89A
:1018400004000020029001A9200000F054F80A20B2
:101850008DF800000A208DF801000A208DF80200A2
:101860000A208DF803006946200000F078F8200077
:10187000FFF7CEFF1FBD38B50B4C0825258322612D
:101880002160A360002161600021E16000216161AD
:10189000210000F080F8002801D0012000E00020A5
:1018A00032BD000020BF02009803000210B40B6894
:1018B0000C694A6833F81230641EA2420DD10C8BB9
:1018C0004A69641E240602F4702204F07064224304
:1018D000134343F44013836100E0C3614868401C34
:1018E000486010BC704710B50C46FFF764F9B0FBB8
:1018F000F4F0401E10BD70B4026812F0010204D072
:10190000046840F6BC731C4004604E788D780C78F7
:101910004B682E4326431E430660BC23098941625F
:1019200083601AB1016841F00101016070BC704729
:1019300080B53449884207D12A20FFF72CF92A20A4
:10194000FFF758F92A2006E02920FFF724F929207B
:10195000FFF750F92920BDE80240FFF75BB90A788C
:1019600002F00F02426042684B781B0103F0F00363
:101970001A43426042688B781B0203F470631A4377
:101980004260C97831B1491E4268090301F47041CF
:1019900011434160704770B504460D46BC20A060FD
:1019A0002A8B69691848521E1206014002F07062C3
:1019B000114341F4001121620020E860686014E0E6
:1019C000A668B00705D529462046FFF76FFF00E05F
:1019D000A668F00709D5E8682969884205D26169D7
:1019E000AA6822F81010401CE860296968688842DB
:1019F000E6D3EA688A42EBD3A16811F00C0F18BF56
:101A0000002070BD00C0044000007F0F020052B2F1
:101A1000002A08D54901574A40B210F00F0010447F
:101A200000F8041C03E04901534A40B211547047C6
:101A300080B5411EB1F1807F01D301200EE0401E30
:101A40004E49086007215FF0FF30FFF7DFFF0020FD
:101A50004B49086007204B490860002002BD012364
:101A600013FA02F2C9B200EB810010F50C500260CB
:101A7000704710B544490888002803D00888401EE4
:101A8000088008E04FF47A7008800E2200215FF091
:101A9000E050FFF7E4FF3D490888002802D008889D
:101AA000401E0880FFF761FC394C2078022809D1DC
:101AB0006069002803D06069401E606102E0012077
:101AC000FFF76EFC207F00282BD0206A002803D06F
:101AD000206A401E206224E02078022808D1207C61
:101AE000002805D1A078012802D10220607010E002
:101AF0002078022808D1607C002805D1A07802282F
:101B000002D10220607004E000206070002084F8A0
:101B10002C000020FFF7B8FC0020FFF7BFFC0020DE
:101B2000207710BD10B500F0DFF862B619480068E4
:101B30004FF47A71B0FBF1F0FFF77AFFFFF792FCF8
:101B4000FEF7A5FE1448FFF768FEFFF7D9FBFFF785
:101B500029F9FFF764FA0D4C20880028F9D10120FB
:101B6000FEF72CFD0220FEF729FD4FF47A7020804D
:101B7000EFE7000018ED00E000E400E014E000E012
:101B800018E000E010E000E01C000002D8030002B2
:101B900068030002D403000200C0044010B5040032
:101BA0002000C0B2FFF726F82000C0B2FFF732F8DD
:101BB00010BD47490860704780B5C9B2D2B212EB78
:101BC00041121100C9B2C0B200F098F801BDC9B20B
:101BD00049010844D2B28354704710B44FF4005303
:101BE0000C00E4B200EB8404C9B200EB8100C058E1
:101BF000012111FA02F20243E25010BC704710B505
:101C00000D20FEF7C8FF0C20FEF7C5FF0D20FFF7E3
:101C1000C5FF1E222F49304800F096F8002411E03D
:101C20002E4830F8142092B2D20AD2B230F81410F2
:101C300089B2490A11F0030130F81400C0B2FFF76D
:101C4000BBFF641C052CEBD3002408E0244800EB08
:101C50004401497810F8140000F061F8641C022C6B
:101C6000F4D310BD38B55FF0E05000F07FF80024E9
:101C700020E01C4D032000FB04F0284442780320A0
:101C800000FB04F0295C5FF0E050FFF7A6FF0320A3
:101C900000FB04F028448378032000FB04F0284470
:101CA0004278032000FB04F0295C5FF0E050FFF76E
:101CB0008EFF641C032CDCD331BD80B500F06CF8C2
:101CC0000120FFF776FF01200149086001BD0000F7
:101CD000CC4007400C1E000000800F40441F000055
:101CE0006C1F0000501F000080B5FFF788FFFFF752
:101CF000E4FFFFF7B7FF00F081F801BD30B4104BEF
:101D0000C200000902F0780253F82040FF259540F8
:101D1000AC439140214343F8201030BC704701236D
:101D200000F01F0203FA02F2C009064B002953F823
:101D3000201014BF21EA02020A4343F82020704712
:101D400000800340C0810340002A00D1704770B476
:101D500051F8043B1C0600EB54451E04360E1B0CC8
:101D600045F82630521EF3D170BC704780B50E2066
:101D7000FEF711FF0F20FEF70EFF1020FEF70BFFFE
:101D80000B20FEF708FF0B20FEF734FFBDE80240F2
:101D90000B20FEF73FBFFEE738B54FF40010FEF70B
:101DA0004FFF0021009102E00098401C0090009835
:101DB000B0F5007FF8DB0F4C0F4D012020604FF491
:101DC0008000FEF739FF852068674FF48000FEF73A
:101DD00037FFA86FC007FCD501212162286820F4D5
:101DE000405040F4005028600620BDE83240FEF725
:101DF000C7BE0000A04007402441074080B5FEF761
:101E0000DAFE0149086001BDD4030002001E800013
:101E100000008000001F80000100800000018000A1
:101E200000028000000380000004800000058000A4
:101E3000000680000101800000098000000C800085
:101E400001028000000D8000000E8000000F800065
:101E50000010800001048000010580000106800060
:101E6000001680010017800101078800010A800028
:101E700000198000001A8000001B8800001C8000F0
:101E8000001D800010B5074979441831064C7C4488
:101E9000163404E00A68081D114488470146A1422F
:101EA000F8D110BD08000000280000006BE2FFFF21
:101EB000C0030000200000020000000095E2FFFFC8
:101EC0002000000024E3FFFF0000000200000000EB
:101ED00000F00DF8002801D0FFF7D4FFAFF3008029
:101EE0000020AFF30080FFF71DFE00F002F8012094
:101EF000704700F001B8FEE70746384600F002F8E8
:101F0000FBE7000080B5AFF30080024A1100182003
:101F1000ABBEFBE7260002000548014603B4684655
:101F200080F30988AFF30080AFF30080FFF7D0FFA4
:101F3000A5EDF5FE5D0F00008D0F0000BD0F000048
:101F4000D90F000051F0520050F8530271600000A8
:101F5000000E00010200010A0000000000480047D6
:101F6000191F0000001BB7000080000084018301DE
:041F7000FEE7FEE7A3
:0400000500001F19BF
:00000001FF
