:10000000D0130002991C0000CF090000870F0000E8
:1000100000000000000000000000000041B6FFFDED
:100020000000000000000000000000004710000079
:1000300000000000000000003B1500005D1A0000F9
:10004000A31C0000A31C0000A31C0000A31C0000B4
:10005000A31C0000A31C0000A31C0000A31C0000A4
:10006000A31C0000A31C0000A31C0000A31C000094
:10007000A31C0000A31C0000A31C0000A31C000084
:10008000A31C000079070000A31C0000A31C0000B3
:10009000A31C0000A31C0000A31C0000A31C000064
:1000A000290F0000A31C0000A31C0000A31C0000DB
:1000B000A31C0000A31C0000A31C0000A31C000044
:1000C000A31C0000A31C0000A31C0000A31C000034
:1000D000A31C0000A31C0000A31C0000A31C000024
:1000E000A31C0000A31C0000A31C0000A31C000014
:1000F000A31C0000A31C0000A31C00008100E7005B
:1001000017456C7661582053204C61622053687506
:0E011000747465722076312E31FC0001E80314
:1003000030B40446002099B12578082385EA00021C
:1003100012F0010218BF80F01800C005000E0AB1EB
:1003200040F080006D085B1EF0D1641C491EEBD1CB
:1003300030BC70472DE9F041012804D0022804BFE9
:100340000025092401E001250424EDB24FF0E0501E
:100350004FF4005700EB85060120F15900FA04F82C
:1003600048EA0101F15106F50A52A0401060E4B2DA
:100370004FF4F07000F00CFAF15921EA0800F05146
:10038000462000F005FA4FF0E05000EB45110A5D01
:10039000541EA441BE202FE02DE9F041012804D0D5
:1003A000022804BF0025092401E001250424EDB240
:1003B0004FF0E0504FF4005700EB85060120F15953
:1003C00000FA04F848EA0101F15106F50A52A0408A
:1003D0001060E4B2052000F0DBF9F15921EA0800D1
:1003E000F0510A2000F0D4F94FF0E05000EB451135
:1003F0000A5D541EA4412D2000F0CAF9E443E00F29
:10040000BDE8F0812DE9F84F4FF0080805464FF49C
:100410000A5A4FF0010B4FF4005489465FEAC97045
:1004200021D5012D04D0022D04D10020092101E0A5
:10043000012004214FF0E05202EB80060BFA01F795
:1004400033593B4333510BFA01F146F80A100520AA
:1004500000F09EF9315921EA07073751052000F0D5
:1004600097F93C2021E0012D04D0022D04D1002079
:10047000092101E0012004214FF0E05202EB800647
:100480000BFA01F730593843305106F50A530BFA8D
:1004900001F11960052000F07BF9412000F078F9A6
:1004A000305920EA07073751052000F071F9B8F1FB
:1004B00001084FEA5909B1D1BDE8F18F70B5054681
:1004C000002608242846FFF767FF7608012808BFA2
:1004D00046F08006641EF5D1304670BD30B4012868
:1004E00004D0022804BF0021092201E001210422D6
:1004F0004FF0E053C8B203EB80004FF400530125E6
:10050000C4589540AC43C4504FF0E05303EB411145
:10051000885C0028FCD030BC70472DE9F84183B0DE
:100520000546FFF707FF58BB33212846FFF76AFF50
:100530002846FFF7C3FF8DF800002846FFF7BEFFEF
:100540008DF801002846FFF7B9FF8DF80200284614
:10055000FFF7B4FF8DF803002846FFF7AFFF8DF8D3
:1005600004002846FFF7AAFF8DF805002846FFF78C
:10057000A5FF8DF806002846FFF7A0FF8DF80700BD
:1005800007219DF800606846FFF7BAFE102E4AD199
:100590009DF80710884240F0B68044212846FFF7B6
:1005A00031FF2846FFF79AFF2846FFF7C3FECC210C
:1005B0002846FFF727FFBE212846FFF723FFE8461E
:1005C00009242846FFF77AFF641E08F8010BF8D1CA
:1005D00008216846FFF794FE9DF80810884240F015
:1005E00092809DF801109DF8002001F00101520851
:1005F0000B001CBF82F07F02521CD3B20A2493FB73
:10060000F4F31F0147EAC11703EB8301A2EB410298
:100610003A43012D04D0022D05D13D48027272E00B
:100620003B490A706FE0282E04BF9DF807108842EE
:1006300069D144212846FFF7E5FE2846FFF74EFF23
:100640002846FFF777FECC212846FFF7DBFEBE21C8
:100650002846FFF7D7FE6F4609242846FFF72EFFEE
:10066000641E07F8010BF8D108216846FFF748FE21
:100670009DF8081088422C4645D19DF801209DF830
:1006800000101501C2F3C00005F0700545EA111510
:1006900003001CBF85F07F056D1CE9B20A2391FBA6
:1006A000F3F10E0146EAC01601EB8100A5EB40050F
:1006B0009DF80000354340EA0220020412D580F480
:1006C0007F4080F0FF00401C80B200F085F80022DF
:1006D000104B00F0ABF800220F4B00F0A7F800F031
:1006E00077F905E000F0A8F94FF0765100F0B2F983
:1006F000012C05D0022C06D105490D72C86002E01C
:1007000003490D70486004B0BDE8F08100000000AE
:10071000B00300020000F0BF0000B03F38B5244C29
:10072000244D204600F002FA2349216000F068FAC7
:100730002249B0FBF1F0286100F062FA1F49204A1B
:10074000B0FBF1F010604FF0FF311E4803681E4B04
:100750000160426842F48052426060681B4A20F0A7
:10076000040060602020296841F0010129601070B8
:100770004FF40031196031BD1549086810B10A689D
:10078000521E0A601348016841F001010160704780
:100790000F49086008680028FCD170470C4A4FF4E4
:1007A0007A714843106010680028FCD1704700003F
:1007B00000C0011CF0C0011C0100020040420F00FB
:1007C00000C2011C00C3011C00E100E011E400E0D4
:1007D000C0030002F4C0011C014648B1B0FA80F128
:1007E0008840C91CC1F58461090501EBD021400591
:1007F000704730B4002513E050F8042BD30744BFF2
:10080000A9F101039A18091F042942F8045BFAD2DE
:1008100013468C0744BF15809B1CC90748BF1D7039
:1008200050F8041B0029E7D130BC7047B0B581EA0D
:10083000030C0CF0004C40F2FF7515EA11541DBF7B
:1008400015EA1357AC42AF4239E0E41923EA4553A5
:1008500043F48013C90241F0004141EA505EC702EF
:100860001100A7FB020200284FF00000EEFB012060
:100870004FF00001E3FB072118BF42F001024018CE
:1008800000214941E3FB0E01A4F580640F0302D26D
:1008900052004041494154F101046CDD470872F1B6
:1008A000004250F1000051EB0451A1F580115CBFF2
:1008B00041EA0C01B0BD4CEA05510020B0BD05EA8B
:1008C0001357AC4214BFAF4241E050EA410E1CBF87
:1008D00052EA430E02E061460020B0BD24423C448F
:1008E0001BD15FEA070EF6D0090302BF01460020C4
:1008F000AEF1140EB1FA81F7AEEB070401FA07FE70
:100900000C37C7F1200100FA07F7C8404EEA000E85
:1009100023EA455343F48013A2E733F00043B3FACC
:1009200083F704BFB2FA82FE77440B3FE41BB7F1B2
:10093000200E2FBF02FA0EF3BB40C7F1200E22FAA1
:100940000EFE38BF43EA0E03BA40641C82E750EA49
:10095000410E14BF52EA430E6FF000014FF400172E
:1009600017EB430F8ABF194617EB410FB5E74CEA67
:1009700005510020B0BDD4F10104B4F120070FDA15
:10098000C4F12007520828BF42F0010210FA07F50F
:1009900001FA07F7E1BF2A43E0403843E1400FE0A6
:1009A000352C98DCC7F1200452EA400220FA07F205
:1009B00018BF42F0010231FA07F0A1400A430021BA
:1009C00072F1004250F1000051EB0C01B0BDFEE7A6
:1009D00001F000428B1AA3F16051B1F5801F0ADBD0
:1009E000B1F17F6F1FD242EAC102C10071F1004133
:1009F00042EB507070470B15C3F10903212B10D245
:100A0000890241EA905180020128494141F00041A8
:100A100021FA03F0C3F12003994071F100415041E4
:100A20007047100070476FF0000013EB103F5CBF81
:100A3000000E42EAC050704700280AD0B0FA80F198
:100A40008840D1F19D01C905020672F1004241EBD7
:100A500010207047FF2212EAD05C1DBF12EAD1536A
:100A6000944593422BE09C44D30780EA01021A404C
:100A700043EA002043EA0121A1FB0030C04238BF15
:100A800040007CF17F010BDBFE294ADA5B0842EA79
:100A9000C15153EA006373F1004C51EB10207047D1
:100AA000D1F1080CDCF120012FDB5B0810FA01F119
:100AB0000B4320FA0CF073F100415041704794450C
:100AC0001CBF02EAD153934280EA010202F00042C5
:100AD0001DD0400019D0490017D05BB9634514D030
:100AE0000902B1FA81F39940BCEB030CC00140F05C
:100AF0000040C1E70002B0FA80FC10FA0CF0B3EB42
:100B00000C0CC90141F00041B6E7100070474000ED
:100B10000AD0490008D010F1807F94BF11F1807F86
:100B200002E042F0FF407047D043704710B5840B9D
:100B300004F00F041C34E0B200F052F8E0B200F010
:100B40007FF8E0B2BDE8104000F08AB8DFF8D810B6
:100B5000096801F03F01491C48437047314870471C
:100B60002F4800687047314909680020C9B219B19F
:100B7000022903D001D37047F0E7F1E72C48704712
:100B8000000000002B490A680020D2B2032A1BD8BB
:100B9000DFE802F002030C18E5E7C96911F0030170
:100BA00003D0012910D11E480DE0D7E7C86910F025
:100BB000030005D0012806BF19480068002000E0A6
:100BC0001848C3E71C48006870470428174903D336
:100BD000001FC0B248607047086000224A6070473A
:100BE00001222028154905D34B68203882401A433A
:100BF0004A6070470B6802FA00F0184308607047BB
:100C000010B50C4C2068C0B210B9FFF7ACFF01E082
:100C1000FFF7B8FFE16BB0FBF1F010BD0000000082
:100C2000901C0000001BB70098410740804007401F
:100C3000D8AC070084400740941C0000C440074023
:100C400001222028164905DB4B68203882401A43D0
:100C50004A6070470B6802FA00F01843086070475A
:100C6000012220280E4906DB4B682038824023EA07
:100C700002024A6070470B6802FA00F023EA0000A3
:100C800008607047084A1168084303E0064A116883
:100C900021EA00000349084010607047000000008E
:100CA0004440074078FFFF01084207402DE9F84320
:100CB00007468846A14C154699469621204600F0E5
:100CC0005FF984F8008067702A464946A01C00F04E
:100CD0005BF900260020A91CC2B2401CA25C961938
:100CE000C3B28B42F8DBA01C76424655BDE8F183C7
:100CF00010B52D20FFF774FF2D20FFF7A1FF2D2049
:100D0000FFF7AEFF8E4C204600F091F96C20A064F6
:100D10000021A1654FF40041A06C8A4B00F0FE0059
:100D2000A06461604FF40140A0604020216801F0A0
:100D30001F0141F0020121604FF08072824908706A
:100D40001A6010BDF8B50024009400257B4A16787F
:100D50005178D31C1F6800977C4F3B7818002746BA
:100D60000BD094461CF801EB401E7744FAD1FFB239
:100D70001FB1774B0022022192E0300002D0012EF9
:100D80004CD08AE00C2B4BDB082900F28680DFE890
:100D900001F0051F09272E353C842300907800F0D0
:100DA00091F97AE0901C6B4F02680092104600F0B7
:100DB000D1F9FA20FFF7F2FC4FF47A703862012083
:100DC00000F0C5F9B869786101213977797064E07C
:100DD00090786049087060E05E48816941615CE03C
:100DE000901C5D4902680A6000F070FA55E0901CA2
:100DF0005A4902680A6000F079FA4EE0901C58499E
:100E000002680A6000F07EFA47E0901C55490268CB
:100E10000A6042684A6000F089FA3EE0022B01DC79
:100E200010243AE00939072937D8DFE801F0040B2C
:100E30002527292F3615464800F1980100F004FBBC
:100E400080252AE04348424942780A700325037C02
:100E50004B70407C887020E043493D480A7802701E
:100E60000A1D0B7A4370831C15681D600A2551F812
:100E70000C2F40F8062F10E0374802E0374800E01A
:100E80003748334902680A60042506E0354830498E
:100E9000D0E90023C1E9002308252D4B2A4621462D
:100EA0003046FFF703FFF1BD10B5284CA07840B9DC
:100EB000002222709621214800F062F80122A270DF
:100EC00010BD012804BF0020607010BD38B51F4D53
:100ED0000446687808B9FFF735FF687817490B5C56
:100EE0002370401CC4B2972CA8BF0020687000205B
:100EF00032BD1649114B0A789854521CD0B297282B
:100F0000A8BF00220A700020704780B50F4800215A
:100F10008170017041709621084800F031F8134942
:100F20004FF480420A6001BD10B5054C10A1204667
:100F300000F0B0FA0022626010BD0000D002000292
:100F40000000054000E100E018E400E0C8030002F2
:100F500000000002680300026C0300027403000238
:100F6000800300028C030002B00300020023001C77
:100F7000A90E0000CD0E0000F30E00000B0F0000C4
:100F8000002200F0C1BAFEE762B38B0708D0521E00
:100F900011F8013B00F8013B00F024808B07F6D1EB
:100FA000830740F0208000BF103A07D330B4B1E887
:100FB0003810103AA0E83810F9D230BC530724BFDB
:100FC000B1E80810A0E8081044BF51F8043B40F80D
:100FD000043BD20724BF31F8022B20F8022B44BF78
:100FE0000B7803707047121F17D35B0009D151F8BB
:100FF000043B20F8023B1B0C121F20F8023BF6D2E8
:101000000BE051F8043B00F8013B1B0A20F8023BBF
:101010001B0C121F00F8013BF3D238BF121D521EE9
:1010200024BF11F8013B00F8013BF8D8704780B5A8
:101030002D20FFF7D5FD2D20FFF702FEBDE8024071
:101040002D20FFF70DBEFEE710B500F0BDF900F052
:10105000C6F900F0CFF900F0DBF92D4C606810F113
:10106000010F1CBFE06810F1010F07D0A06910F15B
:10107000010F1CBF94F82400FF2810D1002125483F
:101080002170E060606000F065F801214FF47A7033
:10109000217720620120BDE8104000F058B80220FE
:1010A00020700020BDE810400CE01B48184A417831
:1010B000491E8941C90F11740078401E8041C00F3C
:1010C0005074704710B5124C2178F9B110B1012855
:1010D00009D010BD207CC8B9606800F03BF84FF41F
:1010E0007A71216207E0607C80B9E06800F032F834
:1010F0004FF47A702062012000F029F8FA20FFF7FF
:101100004DFBA069606101212177617010BD000075
:1011100068030002504B14000F00001C10B5134C64
:101120002046FFF703FD3221204600F028FA002276
:101130000121204600F002FA60680D490D4B20F0B5
:101140000410606001220C4801601A7010BD09494A
:101150000870704730B10949884202D30849884273
:1011600000D9084604490860704700000080011C4F
:10117000504B14002200001C0482011C804F1200FE
:1011800060E31600E0B50020CDE900003D222A21F1
:10119000ADF80020ADF802108022A621ADF80420A1
:1011A000ADF806100422A24BA248694600F034FABA
:1011B00003B000BD70B5ADF5087D8224ADF80840E0
:1011C00005020404240EADF80C402D0E40F201146B
:1011D000C0B2A142ADF80A50ADF80E0003DB4FF4E7
:1011E0008071002002E000200B0008D002AD12F850
:1011F000014B05EB4006401C88423482F7DB8D4CE6
:101200008B4D01F108022B4602A9204600F004FA9A
:101210000021CDE900112B46D721ADF800100222A4
:101220006946204600F0F8F90028F1D0A878C107F7
:1012300058BFFFF7A7FFA8780106E9D50DF5087D8F
:1012400070BDF8B5ADF5087D1446D222ADF8082082
:1012500003020204120EADF80C200D461B0EC0B2A4
:1012600040F20112ADF80A30ADF80E009542A8BF69
:101270004FF480756F4E6E4F3B4605F1080202A990
:10128000304600F0C9F90021CDE900113B46D721D5
:10129000ADF8001002226946304600F0BDF9002882
:1012A000F1D0B878C10758BFFFF76CFFB8780106D6
:1012B000E9D500203DB107EB4001401C0A8B04F842
:1012C000012BA842F7DB0DF5097DF0BD80B5C0B05C
:1012D0006A464FF480710020FFF7B3FF564802685A
:1012E00000924FF480716A4600201BE080B5C0B0C8
:1012F0006A464FF480710020FFF7A3FF4F48026851
:1013000001A90AE080B5C0B06A464FF480710020A0
:10131000FFF797FF4A48026802A900200A604FF4CD
:1013200080716A46FFF746FF41B000BD38B5ADF5A4
:10133000487D88AA4FF480710020FFF782FF414862
:101340008BA9D0E90023C1E9002300218222ADF856
:101350000820ADF80A100391002088A906AA0B5CAA
:1013600022F81030401C0C5C22F81040401C0B5C32
:1013700022F81030401C0C5C22F81040401CB0F5E4
:10138000807FECDB2B4C2A4D2B464FF4847202A954
:10139000204600F041F90021CDE900112B46D7216C
:1013A000ADF8001002226946204600F035F9002809
:1013B000F1D0A878C10758BFFFF7E4FEA87801066E
:1013C000E9D50DF5497D30BD80B5C0B06A464FF412
:1013D00080710020FFF735FF1749009A15E080B5AE
:1013E000C0B06A464FF480710020FFF72AFF01A8C1
:1013F000124909E080B5C0B06A464FF48071002000
:10140000FFF71FFF02A80E4902680A6041B000BD45
:1014100080B5C0B06A464FF480710020FFF711FF1D
:1014200003A80849D0E90023C1E9002341B000BD69
:10143000B800000200C004406C0300027403000204
:10144000800300028C0300025FEA000C80EA0103C3
:101450009B0715D1830706D011F8013B00F8013B2B
:10146000B3B18307F8D10A68B2F1013323EA02036A
:1014700013F0803F02BF40F8042B51F8042FF3E72C
:1014800011F8013B00F8013B13B111F8013BF9E7FA
:101490006046704738B505460024A869000405D5A4
:1014A0004FF400426A60C868804726E06868400AD6
:1014B00010F0030003D0022817D00DD31CE0686899
:1014C000C0F3013005EB8000806CC0F346008DF85E
:1014D00000000968884710E0686C8DF80000896892
:1014E0009DF800008847044606E04968684688473A
:1014F00004469DF80000686414B90120286401E0E6
:1015000002212964204632BD00B500BF1300964673
:101510009446103928BFA0E80C50FAD85FEA417C05
:1015200028BF0CC048BF40F8042BC90728BF20F8CB
:10153000022B48BF00F8012B00BDFEE770B400EBA2
:10154000C10303F5407341F480545C6001251D60C4
:1015500000EBC20606F5A06305FA01F11D605960B3
:10156000520003219140836DC9430B4005FA02F2FA
:101570001A438265426D1140416570BC704738B5B1
:1015800004460D46FFF73CFB616841F004116160C1
:101590000022616841F008116160E264C4F8002132
:1015A000B0FBF5F0C4F800024FF4805104F5407030
:1015B0000122416002600148206031BD010002004B
:1015C00010B584B0044600F081F81D49204600F0B3
:1015D00058F810218DF80510ADF80C0004210022F8
:1015E0008DF804108DF80620029201A9204600F023
:1015F00050F80A218DF800108DF801108DF80210B6
:101600008DF803102046694600F077F8206840F016
:101610000100206004B010BD38B50A4C21600021E3
:101620006160E160616108252261A3602583214634
:1016300000F07FF8401E8041C043C00F32BD000063
:1016400020BF02009403000210B40B680C694A68C2
:1016500033F81230641EA2420DD10C8B4A69641E0D
:10166000240602F4702204F070642243134343F40E
:101670004013836100E0C3614868401C486010BCAF
:10168000704710B50C46FFF7BBFAB0FBF4F0401EF4
:1016900010BD70B4026812F0010204D0046840F674
:1016A000BC731C4004604E788D780C784B682E43D8
:1016B00026431E430660BC230989416283601AB138
:1016C000016841F00101016070BC704780B5354987
:1016D000884207D12A20FFF783FA2A20FFF7B0FAC1
:1016E0002A2006E02920FFF77BFA2920FFF7A8FA35
:1016F0002920BDE80240FFF7B3BA0A7802F00F02D2
:10170000426042684B781B0103F0F0031A434260C9
:1017100042688B781B0203F470631A434260C978F5
:1017200031B1491E4268090301F47041114341601F
:10173000704770B504460D46BC20A0602A8B6969CD
:101740001948521E1206014002F07062114341F422
:10175000001121620020E860686011E0A668B0070F
:1017600016D529462046FFF76FFF11E0E868296982
:10177000884205D26169AA6822F81010401CE8600E
:10178000296968688842E9D3EA688A4204D2A6686F
:10179000F007F5D5EAE770BDA16811F00C0FFAD09B
:1017A000002070BD00C0044000007F0F10B50D2068
:1017B000FFF716FA0C20FFF713FA0D20FFF740FA97
:1017C0000D20FFF74DFA1E223CA13A4859A400F023
:1017D000BDF82088410A01F00301C20A02EB411260
:1017E000D1B2C0B200F0C4F86088410A01F0030130
:1017F000C20A02EB4112D1B2C0B200F0B9F8A0881F
:10180000410A01F00301C20A02EB4112D1B2C0B297
:1018100000F0AEF8E088410A01F00301C20A02EBD1
:101820004112D1B2C0B200F0A3F82089410A01F000
:101830000301C20A02EB4112D1B2C0B200F098F823
:101840000121842000F0A5F8BDE81040012183208B
:1018500000F09FB870B54FF0E05000F0AFF800BF57
:1018600037A103204FF400520B784FF0E05404EB03
:10187000830301269D584C78A64035439D504FF078
:10188000E0530D788C7803EB45164B78C91CF45463
:10189000401EE9D170BD80B5FFF788FF00F0A4F8C5
:1018A0000548012101600160FFF7D4FFBDE8014058
:1018B00000F0CCB800800F40CC400740001E8000F4
:1018C00000008000001F80000100800000018000F7
:1018D00000028000000380000004800000058000FA
:1018E000000680000101800000098000000C8000DB
:1018F00001028000000D8000000E8000000F8000BB
:1019000000108000010480000105800001068000B5
:10191000001680010017800101078800010A80007D
:1019200000198000001A8000001B8800001C800045
:10193000001D800051F0520050F853027160000009
:10194000000E00010200010A00000000002A00D180
:10195000704770B451F8043B1C0600EB54451E045C
:10196000360E1B0C45F82630521EF3D170BC704762
:1019700030B4104BC200000902F0780253F8204046
:10198000FF259540AC439140214343F8201030BCE3
:101990007047012300F01F0203FA02F2C009064B50
:1019A000002953F8201014BF21EA02020A4343F829
:1019B0002020704700800340C081034080B50E2086
:1019C000FFF70EF90F20FFF70BF91020FFF708F9CA
:1019D0000B20FFF705F90B20FFF732F9BDE80240B5
:1019E0000B20FFF73DB9000038B54FF40010FFF7AA
:1019F0004DF90021009102E00098401C00900098F1
:101A0000B0F5007FF8DB0F4C0F4D012020604FF444
:101A10008000FFF737F9852068674FF48000FFF7F3
:101A200035F9A86FC007FCD501212162286820F490
:101A3000405040F4005028600620BDE83240FFF7D7
:101A4000C4B80000A04007402441074080B5FFF71C
:101A5000D7F80149086001BDC403000210B534493C
:101A6000088808B1401E05E0324B4FF480424FF425
:101A70007A701A6008803049088808B1401E0880D2
:101A8000FFF713FB2D4C2078022806D1606900284F
:101A90001ABF401E6061FFF715FB207FB8B1206AB6
:101AA00010B1401E206210BD2078022806D1207C93
:101AB000002819BF607C002802216170002060703E
:101AC000FFF745FB0020FFF745FB0020207710BD06
:101AD00010B5FFF7E0FE62B6194801684FF47A725C
:101AE000B1FBF2F0401EB0F1807F08D21549164AD2
:101AF00048600023E02010708B6007200860FFF72B
:101B00000DFBFEF70BFE11480B4CFFF759FDFFF7DD
:101B10009BFAFFF7EDF820880028FCD10120FEF7A2
:101B2000FCFC0220FEF7F9FC4FF47A702080F2E70B
:101B3000B40000020023001CCC0300026803000272
:101B4000C403000210E000E023ED00E000C0044008
:101B50002DE9FC4D016800F10805490805EBC102BB
:101B6000019200F10803406800F0010A03EBC1088C
:101B7000400808EBC00B00200021019A95422FD0AD
:101B80002B686A68EE18324400920835009A964233
:101B9000F3D016F9014B009A964205D12B686A687A
:101BA000EE1832440092083516F8017B884210D1B5
:101BB000D84508BF00F01AF8D8F80000D8F804108B
:101BC000BAF1000F18BF48440144884208F10808E0
:101BD000EED0002C00F8017B05D5641CE6D1D5E7DA
:101BE0005846BDE8F68D641ED5D5CFE7012000F03C
:101BF00001B800002021090326311820ABBEF9E707
:101C000010B5074979441831064C7C44163404E079
:101C10000A68081D114488470146A142F8D110BD49
:101C20000800000030000000CBEBFFFF18030000AD
:101C3000B80000020000000019FFFFFF02000000D2
:101C400002000000B8E4FFFF2200000000000002D4
:101C5000B60000000120C046002801D0FFF7D0FFE9
:101C6000AFF300800020AFF30080FFF731FF00F0FA
:101C700000F800F001B8000007463846FFF7BAFF49
:101C8000FBE7AFF30080AFF30080FFF7E3FF000056
:101C9000001BB7000080000000480047831C0000C4
:041CA000FEE7FEE776
:0400000500001C8358
:00000001FF
